{
  "_format": "hh-sol-artifact-1",
  "contractName": "VNSeToken",
  "sourceName": "contracts/VNSeToken.sol",
  "abi": [
    {
      "inputs": [],
      "stateMutability": "nonpayable",
      "type": "constructor"
    },
    {
      "anonymous": false,
      "inputs": [
        {
          "indexed": true,
          "internalType": "address",
          "name": "owner",
          "type": "address"
        },
        {
          "indexed": true,
          "internalType": "address",
          "name": "spender",
          "type": "address"
        },
        {
          "indexed": false,
          "internalType": "uint256",
          "name": "value",
          "type": "uint256"
        }
      ],
      "name": "Approval",
      "type": "event"
    },
    {
      "anonymous": false,
      "inputs": [
        {
          "indexed": true,
          "internalType": "address",
          "name": "previousOwner",
          "type": "address"
        },
        {
          "indexed": true,
          "internalType": "address",
          "name": "newOwner",
          "type": "address"
        }
      ],
      "name": "OwnershipTransferred",
      "type": "event"
    },
    {
      "anonymous": false,
      "inputs": [
        {
          "indexed": true,
          "internalType": "address",
          "name": "from",
          "type": "address"
        },
        {
          "indexed": true,
          "internalType": "address",
          "name": "to",
          "type": "address"
        },
        {
          "indexed": false,
          "internalType": "uint256",
          "name": "value",
          "type": "uint256"
        }
      ],
      "name": "Transfer",
      "type": "event"
    },
    {
      "inputs": [
        {
          "internalType": "address",
          "name": "owner",
          "type": "address"
        },
        {
          "internalType": "address",
          "name": "spender",
          "type": "address"
        }
      ],
      "name": "allowance",
      "outputs": [
        {
          "internalType": "uint256",
          "name": "",
          "type": "uint256"
        }
      ],
      "stateMutability": "view",
      "type": "function"
    },
    {
      "inputs": [
        {
          "internalType": "address",
          "name": "spender",
          "type": "address"
        },
        {
          "internalType": "uint256",
          "name": "amount",
          "type": "uint256"
        }
      ],
      "name": "approve",
      "outputs": [
        {
          "internalType": "bool",
          "name": "",
          "type": "bool"
        }
      ],
      "stateMutability": "nonpayable",
      "type": "function"
    },
    {
      "inputs": [
        {
          "internalType": "address",
          "name": "account",
          "type": "address"
        }
      ],
      "name": "balanceOf",
      "outputs": [
        {
          "internalType": "uint256",
          "name": "",
          "type": "uint256"
        }
      ],
      "stateMutability": "view",
      "type": "function"
    },
    {
      "inputs": [],
      "name": "decimals",
      "outputs": [
        {
          "internalType": "uint8",
          "name": "",
          "type": "uint8"
        }
      ],
      "stateMutability": "view",
      "type": "function"
    },
    {
      "inputs": [
        {
          "internalType": "address",
          "name": "spender",
          "type": "address"
        },
        {
          "internalType": "uint256",
          "name": "subtractedValue",
          "type": "uint256"
        }
      ],
      "name": "decreaseAllowance",
      "outputs": [
        {
          "internalType": "bool",
          "name": "",
          "type": "bool"
        }
      ],
      "stateMutability": "nonpayable",
      "type": "function"
    },
    {
      "inputs": [],
      "name": "getMyNumber",
      "outputs": [
        {
          "internalType": "uint256",
          "name": "",
          "type": "uint256"
        }
      ],
      "stateMutability": "view",
      "type": "function"
    },
    {
      "inputs": [],
      "name": "getTokenPrice",
      "outputs": [
        {
          "internalType": "uint256",
          "name": "",
          "type": "uint256"
        }
      ],
      "stateMutability": "view",
      "type": "function"
    },
    {
      "inputs": [
        {
          "internalType": "address",
          "name": "spender",
          "type": "address"
        },
        {
          "internalType": "uint256",
          "name": "addedValue",
          "type": "uint256"
        }
      ],
      "name": "increaseAllowance",
      "outputs": [
        {
          "internalType": "bool",
          "name": "",
          "type": "bool"
        }
      ],
      "stateMutability": "nonpayable",
      "type": "function"
    },
    {
      "inputs": [],
      "name": "name",
      "outputs": [
        {
          "internalType": "string",
          "name": "",
          "type": "string"
        }
      ],
      "stateMutability": "view",
      "type": "function"
    },
    {
      "inputs": [],
      "name": "owner",
      "outputs": [
        {
          "internalType": "address",
          "name": "",
          "type": "address"
        }
      ],
      "stateMutability": "view",
      "type": "function"
    },
    {
      "inputs": [],
      "name": "renounceOwnership",
      "outputs": [],
      "stateMutability": "nonpayable",
      "type": "function"
    },
    {
      "inputs": [
        {
          "internalType": "uint256",
          "name": "newPrice",
          "type": "uint256"
        }
      ],
      "name": "setTokenPrice",
      "outputs": [],
      "stateMutability": "nonpayable",
      "type": "function"
    },
    {
      "inputs": [],
      "name": "symbol",
      "outputs": [
        {
          "internalType": "string",
          "name": "",
          "type": "string"
        }
      ],
      "stateMutability": "view",
      "type": "function"
    },
    {
      "inputs": [],
      "name": "tokenPrice",
      "outputs": [
        {
          "internalType": "uint256",
          "name": "",
          "type": "uint256"
        }
      ],
      "stateMutability": "view",
      "type": "function"
    },
    {
      "inputs": [],
      "name": "totalSupply",
      "outputs": [
        {
          "internalType": "uint256",
          "name": "",
          "type": "uint256"
        }
      ],
      "stateMutability": "view",
      "type": "function"
    },
    {
      "inputs": [],
      "name": "totalTransactions",
      "outputs": [
        {
          "internalType": "uint256",
          "name": "",
          "type": "uint256"
        }
      ],
      "stateMutability": "view",
      "type": "function"
    },
    {
      "inputs": [
        {
          "internalType": "address",
          "name": "recipient",
          "type": "address"
        },
        {
          "internalType": "uint256",
          "name": "amount",
          "type": "uint256"
        }
      ],
      "name": "transfer",
      "outputs": [
        {
          "internalType": "bool",
          "name": "",
          "type": "bool"
        }
      ],
      "stateMutability": "nonpayable",
      "type": "function"
    },
    {
      "inputs": [
        {
          "internalType": "address",
          "name": "sender",
          "type": "address"
        },
        {
          "internalType": "address",
          "name": "recipient",
          "type": "address"
        },
        {
          "internalType": "uint256",
          "name": "amount",
          "type": "uint256"
        }
      ],
      "name": "transferFrom",
      "outputs": [
        {
          "internalType": "bool",
          "name": "",
          "type": "bool"
        }
      ],
      "stateMutability": "nonpayable",
      "type": "function"
    },
    {
      "inputs": [
        {
          "internalType": "address",
          "name": "newOwner",
          "type": "address"
        }
      ],
      "name": "transferOwnership",
      "outputs": [],
      "stateMutability": "nonpayable",
      "type": "function"
    }
  ],
  "bytecode": "0x608060405266038d7ea4c680006007553480156200001c57600080fd5b506040518060400160405280600881526020017f564e532065636f6d0000000000000000000000000000000000000000000000008152506040518060400160405280600481526020017f564e53650000000000000000000000000000000000000000000000000000000081525081600390816200009a9190620005dc565b508060049081620000ac9190620005dc565b505050620000cf620000c36200011460201b60201c565b6200011c60201b60201c565b6200010e33620000e4620001e260201b60201c565b600a620000f2919062000853565b620f4240620001029190620008a4565b620001eb60201b60201c565b620009db565b600033905090565b6000600560009054906101000a900473ffffffffffffffffffffffffffffffffffffffff16905081600560006101000a81548173ffffffffffffffffffffffffffffffffffffffff021916908373ffffffffffffffffffffffffffffffffffffffff1602179055508173ffffffffffffffffffffffffffffffffffffffff168173ffffffffffffffffffffffffffffffffffffffff167f8be0079c531659141344cd1fd0a4f28419497f9722a3daafe3b4186f6b6457e060405160405180910390a35050565b60006012905090565b600073ffffffffffffffffffffffffffffffffffffffff168273ffffffffffffffffffffffffffffffffffffffff16036200025d576040517f08c379a0000000000000000000000000000000000000000000000000000000008152600401620002549062000950565b60405180910390fd5b62000271600083836200035860201b60201c565b806002600082825462000285919062000972565b92505081905550806000808473ffffffffffffffffffffffffffffffffffffffff1673ffffffffffffffffffffffffffffffffffffffff168152602001908152602001600020600082825401925050819055508173ffffffffffffffffffffffffffffffffffffffff16600073ffffffffffffffffffffffffffffffffffffffff167fddf252ad1be2c89b69c2b068fc378daa952ba7f163c4a11628f55a4df523b3ef83604051620003389190620009be565b60405180910390a362000354600083836200035d60201b60201c565b5050565b505050565b505050565b600081519050919050565b7f4e487b7100000000000000000000000000000000000000000000000000000000600052604160045260246000fd5b7f4e487b7100000000000000000000000000000000000000000000000000000000600052602260045260246000fd5b60006002820490506001821680620003e457607f821691505b602082108103620003fa57620003f96200039c565b5b50919050565b60008190508160005260206000209050919050565b60006020601f8301049050919050565b600082821b905092915050565b600060088302620004647fffffffffffffffffffffffffffffffffffffffffffffffffffffffffffffffff8262000425565b62000470868362000425565b95508019841693508086168417925050509392505050565b6000819050919050565b6000819050919050565b6000620004bd620004b7620004b18462000488565b62000492565b62000488565b9050919050565b6000819050919050565b620004d9836200049c565b620004f1620004e882620004c4565b84845462000432565b825550505050565b600090565b62000508620004f9565b62000515818484620004ce565b505050565b5b818110156200053d5762000531600082620004fe565b6001810190506200051b565b5050565b601f8211156200058c57620005568162000400565b620005618462000415565b8101602085101562000571578190505b62000589620005808562000415565b8301826200051a565b50505b505050565b600082821c905092915050565b6000620005b16000198460080262000591565b1980831691505092915050565b6000620005cc83836200059e565b9150826002028217905092915050565b620005e78262000362565b67ffffffffffffffff8111156200060357620006026200036d565b5b6200060f8254620003cb565b6200061c82828562000541565b600060209050601f8311600181146200065457600084156200063f578287015190505b6200064b8582620005be565b865550620006bb565b601f198416620006648662000400565b60005b828110156200068e5784890151825560018201915060208501945060208101905062000667565b86831015620006ae5784890151620006aa601f8916826200059e565b8355505b6001600288020188555050505b505050505050565b7f4e487b7100000000000000000000000000000000000000000000000000000000600052601160045260246000fd5b60008160011c9050919050565b6000808291508390505b60018511156200075157808604811115620007295762000728620006c3565b5b6001851615620007395780820291505b80810290506200074985620006f2565b945062000709565b94509492505050565b6000826200076c57600190506200083f565b816200077c57600090506200083f565b8160018114620007955760028114620007a057620007d6565b60019150506200083f565b60ff841115620007b557620007b4620006c3565b5b8360020a915084821115620007cf57620007ce620006c3565b5b506200083f565b5060208310610133831016604e8410600b8410161715620008105782820a9050838111156200080a5762000809620006c3565b5b6200083f565b6200081f8484846001620006ff565b92509050818404811115620008395762000838620006c3565b5b81810290505b9392505050565b600060ff82169050919050565b6000620008608262000488565b91506200086d8362000846565b92506200089c7fffffffffffffffffffffffffffffffffffffffffffffffffffffffffffffffff84846200075a565b905092915050565b6000620008b18262000488565b9150620008be8362000488565b9250828202620008ce8162000488565b91508282048414831517620008e857620008e7620006c3565b5b5092915050565b600082825260208201905092915050565b7f45524332303a206d696e7420746f20746865207a65726f206164647265737300600082015250565b600062000938601f83620008ef565b9150620009458262000900565b602082019050919050565b600060208201905081810360008301526200096b8162000929565b9050919050565b60006200097f8262000488565b91506200098c8362000488565b9250828201905080821115620009a757620009a6620006c3565b5b92915050565b620009b88162000488565b82525050565b6000602082019050620009d56000830184620009ad565b92915050565b61185d80620009eb6000396000f3fe608060405234801561001057600080fd5b50600436106101215760003560e01c8063715018a6116100ad578063a9059cbb11610071578063a9059cbb1461030e578063b32e737f1461033e578063b9a600381461035c578063dd62ed3e1461037a578063f2fde38b146103aa57610121565b8063715018a61461027a5780637ff9b596146102845780638da5cb5b146102a257806395d89b41146102c0578063a457c2d7146102de57610121565b8063313ce567116100f4578063313ce567146101c257806339509351146101e05780634b94f50e146102105780636a61e5fc1461022e57806370a082311461024a57610121565b806306fdde0314610126578063095ea7b31461014457806318160ddd1461017457806323b872dd14610192575b600080fd5b61012e6103c6565b60405161013b9190610f79565b60405180910390f35b61015e60048036038101906101599190611034565b610458565b60405161016b919061108f565b60405180910390f35b61017c61047b565b60405161018991906110b9565b60405180910390f35b6101ac60048036038101906101a791906110d4565b610485565b6040516101b9919061108f565b60405180910390f35b6101ca6104f6565b6040516101d79190611143565b60405180910390f35b6101fa60048036038101906101f59190611034565b6104ff565b604051610207919061108f565b60405180910390f35b610218610536565b60405161022591906110b9565b60405180910390f35b6102486004803603810190610243919061115e565b610540565b005b610264600480360381019061025f919061118b565b610552565b60405161027191906110b9565b60405180910390f35b61028261059a565b005b61028c6105ae565b60405161029991906110b9565b60405180910390f35b6102aa6105b4565b6040516102b791906111c7565b60405180910390f35b6102c86105de565b6040516102d59190610f79565b60405180910390f35b6102f860048036038101906102f39190611034565b610670565b604051610305919061108f565b60405180910390f35b61032860048036038101906103239190611034565b6106e7565b604051610335919061108f565b60405180910390f35b610346610756565b60405161035391906110b9565b60405180910390f35b610364610766565b60405161037191906110b9565b60405180910390f35b610394600480360381019061038f91906111e2565b61076c565b6040516103a191906110b9565b60405180910390f35b6103c460048036038101906103bf919061118b565b6107f3565b005b6060600380546103d590611251565b80601f016020809104026020016040519081016040528092919081815260200182805461040190611251565b801561044e5780601f106104235761010080835404028352916020019161044e565b820191906000526020600020905b81548152906001019060200180831161043157829003601f168201915b5050505050905090565b600080610463610876565b905061047081858561087e565b600191505092915050565b6000600254905090565b6000610492848484610a47565b6104d1576040517f08c379a00000000000000000000000000000000000000000000000000000000081526004016104c8906112ce565b60405180910390fd5b6001600660008282546104e4919061131d565b92505081905550600190509392505050565b60006012905090565b60008061050a610876565b905061052b81858561051c858961076c565b610526919061131d565b61087e565b600191505092915050565b6000600754905090565b610548610a76565b8060078190555050565b60008060008373ffffffffffffffffffffffffffffffffffffffff1673ffffffffffffffffffffffffffffffffffffffff168152602001908152602001600020549050919050565b6105a2610a76565b6105ac6000610af4565b565b60075481565b6000600560009054906101000a900473ffffffffffffffffffffffffffffffffffffffff16905090565b6060600480546105ed90611251565b80601f016020809104026020016040519081016040528092919081815260200182805461061990611251565b80156106665780601f1061063b57610100808354040283529160200191610666565b820191906000526020600020905b81548152906001019060200180831161064957829003601f168201915b5050505050905090565b60008061067b610876565b90506000610689828661076c565b9050838110156106ce576040517f08c379a00000000000000000000000000000000000000000000000000000000081526004016106c5906113c3565b60405180910390fd5b6106db828686840361087e565b60019250505092915050565b60006106f38383610bba565b610732576040517f08c379a0000000000000000000000000000000000000000000000000000000008152600401610729906112ce565b60405180910390fd5b600160066000828254610745919061131d565b925050819055506001905092915050565b600061076133610552565b905090565b60065481565b6000600160008473ffffffffffffffffffffffffffffffffffffffff1673ffffffffffffffffffffffffffffffffffffffff16815260200190815260200160002060008373ffffffffffffffffffffffffffffffffffffffff1673ffffffffffffffffffffffffffffffffffffffff16815260200190815260200160002054905092915050565b6107fb610a76565b600073ffffffffffffffffffffffffffffffffffffffff168173ffffffffffffffffffffffffffffffffffffffff160361086a576040517f08c379a000000000000000000000000000000000000000000000000000000000815260040161086190611455565b60405180910390fd5b61087381610af4565b50565b600033905090565b600073ffffffffffffffffffffffffffffffffffffffff168373ffffffffffffffffffffffffffffffffffffffff16036108ed576040517f08c379a00000000000000000000000000000000000000000000000000000000081526004016108e4906114e7565b60405180910390fd5b600073ffffffffffffffffffffffffffffffffffffffff168273ffffffffffffffffffffffffffffffffffffffff160361095c576040517f08c379a000000000000000000000000000000000000000000000000000000000815260040161095390611579565b60405180910390fd5b80600160008573ffffffffffffffffffffffffffffffffffffffff1673ffffffffffffffffffffffffffffffffffffffff16815260200190815260200160002060008473ffffffffffffffffffffffffffffffffffffffff1673ffffffffffffffffffffffffffffffffffffffff168152602001908152602001600020819055508173ffffffffffffffffffffffffffffffffffffffff168373ffffffffffffffffffffffffffffffffffffffff167f8c5be1e5ebec7d5bd14f71427d1e84f3dd0314c0f7b2291e5b200ac8c7c3b92583604051610a3a91906110b9565b60405180910390a3505050565b600080610a52610876565b9050610a5f858285610bdd565b610a6a858585610c69565b60019150509392505050565b610a7e610876565b73ffffffffffffffffffffffffffffffffffffffff16610a9c6105b4565b73ffffffffffffffffffffffffffffffffffffffff1614610af2576040517f08c379a0000000000000000000000000000000000000000000000000000000008152600401610ae9906115e5565b60405180910390fd5b565b6000600560009054906101000a900473ffffffffffffffffffffffffffffffffffffffff16905081600560006101000a81548173ffffffffffffffffffffffffffffffffffffffff021916908373ffffffffffffffffffffffffffffffffffffffff1602179055508173ffffffffffffffffffffffffffffffffffffffff168173ffffffffffffffffffffffffffffffffffffffff167f8be0079c531659141344cd1fd0a4f28419497f9722a3daafe3b4186f6b6457e060405160405180910390a35050565b600080610bc5610876565b9050610bd2818585610c69565b600191505092915050565b6000610be9848461076c565b90507fffffffffffffffffffffffffffffffffffffffffffffffffffffffffffffffff8114610c635781811015610c55576040517f08c379a0000000000000000000000000000000000000000000000000000000008152600401610c4c90611651565b60405180910390fd5b610c62848484840361087e565b5b50505050565b600073ffffffffffffffffffffffffffffffffffffffff168373ffffffffffffffffffffffffffffffffffffffff1603610cd8576040517f08c379a0000000000000000000000000000000000000000000000000000000008152600401610ccf906116e3565b60405180910390fd5b600073ffffffffffffffffffffffffffffffffffffffff168273ffffffffffffffffffffffffffffffffffffffff1603610d47576040517f08c379a0000000000000000000000000000000000000000000000000000000008152600401610d3e90611775565b60405180910390fd5b610d52838383610edf565b60008060008573ffffffffffffffffffffffffffffffffffffffff1673ffffffffffffffffffffffffffffffffffffffff16815260200190815260200160002054905081811015610dd8576040517f08c379a0000000000000000000000000000000000000000000000000000000008152600401610dcf90611807565b60405180910390fd5b8181036000808673ffffffffffffffffffffffffffffffffffffffff1673ffffffffffffffffffffffffffffffffffffffff16815260200190815260200160002081905550816000808573ffffffffffffffffffffffffffffffffffffffff1673ffffffffffffffffffffffffffffffffffffffff168152602001908152602001600020600082825401925050819055508273ffffffffffffffffffffffffffffffffffffffff168473ffffffffffffffffffffffffffffffffffffffff167fddf252ad1be2c89b69c2b068fc378daa952ba7f163c4a11628f55a4df523b3ef84604051610ec691906110b9565b60405180910390a3610ed9848484610ee4565b50505050565b505050565b505050565b600081519050919050565b600082825260208201905092915050565b60005b83811015610f23578082015181840152602081019050610f08565b60008484015250505050565b6000601f19601f8301169050919050565b6000610f4b82610ee9565b610f558185610ef4565b9350610f65818560208601610f05565b610f6e81610f2f565b840191505092915050565b60006020820190508181036000830152610f938184610f40565b905092915050565b600080fd5b600073ffffffffffffffffffffffffffffffffffffffff82169050919050565b6000610fcb82610fa0565b9050919050565b610fdb81610fc0565b8114610fe657600080fd5b50565b600081359050610ff881610fd2565b92915050565b6000819050919050565b61101181610ffe565b811461101c57600080fd5b50565b60008135905061102e81611008565b92915050565b6000806040838503121561104b5761104a610f9b565b5b600061105985828601610fe9565b925050602061106a8582860161101f565b9150509250929050565b60008115159050919050565b61108981611074565b82525050565b60006020820190506110a46000830184611080565b92915050565b6110b381610ffe565b82525050565b60006020820190506110ce60008301846110aa565b92915050565b6000806000606084860312156110ed576110ec610f9b565b5b60006110fb86828701610fe9565b935050602061110c86828701610fe9565b925050604061111d8682870161101f565b9150509250925092565b600060ff82169050919050565b61113d81611127565b82525050565b60006020820190506111586000830184611134565b92915050565b60006020828403121561117457611173610f9b565b5b60006111828482850161101f565b91505092915050565b6000602082840312156111a1576111a0610f9b565b5b60006111af84828501610fe9565b91505092915050565b6111c181610fc0565b82525050565b60006020820190506111dc60008301846111b8565b92915050565b600080604083850312156111f9576111f8610f9b565b5b600061120785828601610fe9565b925050602061121885828601610fe9565b9150509250929050565b7f4e487b7100000000000000000000000000000000000000000000000000000000600052602260045260246000fd5b6000600282049050600182168061126957607f821691505b60208210810361127c5761127b611222565b5b50919050565b7f5472616e73666572206661696c65640000000000000000000000000000000000600082015250565b60006112b8600f83610ef4565b91506112c382611282565b602082019050919050565b600060208201905081810360008301526112e7816112ab565b9050919050565b7f4e487b7100000000000000000000000000000000000000000000000000000000600052601160045260246000fd5b600061132882610ffe565b915061133383610ffe565b925082820190508082111561134b5761134a6112ee565b5b92915050565b7f45524332303a2064656372656173656420616c6c6f77616e63652062656c6f7760008201527f207a65726f000000000000000000000000000000000000000000000000000000602082015250565b60006113ad602583610ef4565b91506113b882611351565b604082019050919050565b600060208201905081810360008301526113dc816113a0565b9050919050565b7f4f776e61626c653a206e6577206f776e657220697320746865207a65726f206160008201527f6464726573730000000000000000000000000000000000000000000000000000602082015250565b600061143f602683610ef4565b915061144a826113e3565b604082019050919050565b6000602082019050818103600083015261146e81611432565b9050919050565b7f45524332303a20617070726f76652066726f6d20746865207a65726f2061646460008201527f7265737300000000000000000000000000000000000000000000000000000000602082015250565b60006114d1602483610ef4565b91506114dc82611475565b604082019050919050565b60006020820190508181036000830152611500816114c4565b9050919050565b7f45524332303a20617070726f766520746f20746865207a65726f20616464726560008201527f7373000000000000000000000000000000000000000000000000000000000000602082015250565b6000611563602283610ef4565b915061156e82611507565b604082019050919050565b6000602082019050818103600083015261159281611556565b9050919050565b7f4f776e61626c653a2063616c6c6572206973206e6f7420746865206f776e6572600082015250565b60006115cf602083610ef4565b91506115da82611599565b602082019050919050565b600060208201905081810360008301526115fe816115c2565b9050919050565b7f45524332303a20696e73756666696369656e7420616c6c6f77616e6365000000600082015250565b600061163b601d83610ef4565b915061164682611605565b602082019050919050565b6000602082019050818103600083015261166a8161162e565b9050919050565b7f45524332303a207472616e736665722066726f6d20746865207a65726f20616460008201527f6472657373000000000000000000000000000000000000000000000000000000602082015250565b60006116cd602583610ef4565b91506116d882611671565b604082019050919050565b600060208201905081810360008301526116fc816116c0565b9050919050565b7f45524332303a207472616e7366657220746f20746865207a65726f206164647260008201527f6573730000000000000000000000000000000000000000000000000000000000602082015250565b600061175f602383610ef4565b915061176a82611703565b604082019050919050565b6000602082019050818103600083015261178e81611752565b9050919050565b7f45524332303a207472616e7366657220616d6f756e742065786365656473206260008201527f616c616e63650000000000000000000000000000000000000000000000000000602082015250565b60006117f1602683610ef4565b91506117fc82611795565b604082019050919050565b60006020820190508181036000830152611820816117e4565b905091905056fea26469706673582212200daa70f815d9c831b44257134e8b1fb6eda631ff5f74a32350766fc871c1756364736f6c63430008120033",
  "linkReferences": {},
  "deployedLinkReferences": {}
}